S02B00004750532D4E454F2D364D2D302D30303120616E6420426C75746F6F7468202D2048432D30352E7372AF
S11300000C942A000C9447000C9447000C9447006D
S11300100C9447000C9447000C9447000C94470040
S11300200C9447000C9447000C9447000C94470030
S11300300C9447000C9451000C9447000C94470016
S11300400C9447000C9447000C9447000C94470010
S11300500C94470011241FBECFE5D8E0DEBFCDBF0E
S113006010E0A0E6B0E0E0EBF2E002C005900D92F3
S1130070A23AB107D9F721E0A2EAB0E001C01D928B
S1130080A032B207E1F70E9417010C9456010C94B8
S1130090000086E880BD10BC83E389B988E98AB989
S11300A008951F920F920FB60F9211248F939F936E
S11300B0EF93FF938CB1E091BB00F0E0E454FF4F69
S11300C080838091BB008F5F8093BB008091BB00D5
S11300D0873078F4E091BB00F0E0E554FF4F908165
S11300E0E091BB00F0E0E15AFF4F80819813109239
S11300F0BB008091BB00823318F081E08093BA008A
S1130100FF91EF919F918F910F900FBE0F901F90D1
S113011018955F9BFECF8CB108955D9BFECF8CB983
S113012008950F931F93CF93FC018081882359F086
S11301308F01C0E00E948D00CF5FF801EC0FF11D2C
S113014080818111F7CFCF911F910F9108958091F4
S1130150BC00843209F06AC08091BD00873409F084
S113016065C08091BE00803509F060C08091BF00F9
S1130170873409F05BC08091C000873409F056C011
S11301808091C100813409F051C0AEEAB0E080E052
S113019090E09C012F5E3F4FF901E454FF4F4081F2
S11301A04C32C1F08B30910571F414C09C01225E75
S11301B03F4FD901A454BF4F4C914C32D9F08B30EE
S11301C0910589F417C00196F901E454FF4F208189
S11301D02D93DFCFFC01E255FF4F1082E2EAF0E0FD
S11301E080E090E0E3CF0196D901A454BF4F2C9155
S11301F02193DCCFFC01EE55FF4F108286E690E0A0
S11302000E9491008EEA90E00E94910081E790E0C4
S11302100E94910084E790E00E94910082EA90E0BD
S11302200E94910081E790E00E94910008950E944D
S113023049008AB188618AB980B5866880BD83E344
S113024089B910BC78948091BA00813041F4F89453
S11302500E94A7001092BB001092BA0078940E94EA
S1130260890090E08133910531F4C09A80E890E0F0
S11302700E949100E8CF8233910531F4C09887E859
S113028090E00E949100DFCF8136910531F4C19A4C
S11302908FE890E00E949100D6CF8236910599F6BE
S11302A0C19888E990E00E949100CDCFF894FFCFE7
S11302B02447504747414C617469747564653A201A
S11302C0000D0A004C6F6E6769747564653A20000E
S11302D04C4544204F4E004C4544204F4646005266
S11302E0656C6179204F6E0052656C6179204F46D0
S10502F04600C2
S9030000FC
