S01800004750532D4E454F2D364D2D302D3030312E7372656348
S11300000C942A000C9447000C9447000C9447006D
S11300100C9447000C9447000C9447000C94470040
S11300200C9447000C9447000C9447000C94470030
S11300300C9447000C9451000C9447000C94470016
S11300400C9447000C9447000C9447000C94470010
S11300500C94470011241FBECFE5D8E0DEBFCDBF0E
S113006010E0A0E6B0E0E0EAF1E002C005900D92F5
S1130070AA37B107D9F720E0AAE7B0E001C01D9282
S1130080A03EB207E1F70E94A5000C94CE000C94A8
S1130090000086E880BD10BC83E389B988E98AB989
S11300A008951F920F920FB60F9211248F939F936E
S11300B0EF93FF938CB1E0917B00F0E0E458FF4FA5
S11300C0808380917B008F5F80937B0080917B0095
S11300D0873078F4E0917B00F0E0E558FF4F9081A1
S11300E0E0917B00F0E0E15AFF4F80819813109279
S11300F07B0080917B00823318F081E080937A004A
S1130100FF91EF919F918F910F900FBE0F901F90D1
S113011018955D9BFECF8CB90895CF93DF93EC01C6
S11301208881882331F021960E9489008991811168
S1130130FBCFDF91CF9108950E948D008DE00E9446
S113014089008AE00E94890008950E9449007894F9
S113015080917A008130E1F7F89486E690E00E947D
S11301608D0080917B00882379F0C0E0D0E0FE010F
S1130170E458FF4F80810E948900219680917B0082
S113018090E0C817D9079CF310927B0010927A0074
S113019087E790E00E949C007894DACFF894FFCF30
S11301A02447504747415265636569766564205327
S10D01B07472696E673A00200000C3
S9030000FC
